{
	"contracts/SimpleCounter.sol": {
		"SimpleCounter": {
			"abi": [
				{
					"anonymous": false,
					"inputs": [
						{
							"indexed": true,
							"internalType": "address",
							"name": "sndrAddress",
							"type": "address"
						},
						{
							"indexed": true,
							"internalType": "uint256",
							"name": "intToAdd",
							"type": "uint256"
						},
						{
							"indexed": false,
							"internalType": "uint256",
							"name": "curcount",
							"type": "uint256"
						},
						{
							"indexed": false,
							"internalType": "uint256",
							"name": "blocknbr",
							"type": "uint256"
						}
					],
					"name": "intAdded",
					"type": "event"
				},
				{
					"anonymous": false,
					"inputs": [
						{
							"indexed": true,
							"internalType": "address",
							"name": "sndrAddress",
							"type": "address"
						},
						{
							"indexed": false,
							"internalType": "uint256",
							"name": "blocknbr",
							"type": "uint256"
						},
						{
							"indexed": false,
							"internalType": "uint256",
							"name": "curcount",
							"type": "uint256"
						}
					],
					"name": "intReset",
					"type": "event"
				},
				{
					"inputs": [
						{
							"internalType": "uint256",
							"name": "intToAdd",
							"type": "uint256"
						}
					],
					"name": "addInteger",
					"outputs": [
						{
							"internalType": "uint256",
							"name": "",
							"type": "uint256"
						}
					],
					"stateMutability": "nonpayable",
					"type": "function"
				},
				{
					"inputs": [],
					"name": "count",
					"outputs": [
						{
							"internalType": "uint256",
							"name": "",
							"type": "uint256"
						}
					],
					"stateMutability": "view",
					"type": "function"
				},
				{
					"inputs": [],
					"name": "reset",
					"outputs": [
						{
							"internalType": "uint256",
							"name": "",
							"type": "uint256"
						}
					],
					"stateMutability": "nonpayable",
					"type": "function"
				}
			],
			"devdoc": {
				"kind": "dev",
				"methods": {},
				"version": 1
			},
			"evm": {
				"assembly": "    /* \"contracts/SimpleCounter.sol\":62:643  contract SimpleCounter {\r... */\n  mstore(0x40, 0x80)\n    /* \"contracts/SimpleCounter.sol\":112:113  0 */\n  0x00\n    /* \"contracts/SimpleCounter.sol\":92:113  uint public count = 0 */\n  dup1\n  sstore\n    /* \"contracts/SimpleCounter.sol\":62:643  contract SimpleCounter {\r... */\n  callvalue\n  dup1\n  iszero\n  tag_1\n  jumpi\n  0x00\n  dup1\n  revert\ntag_1:\n  pop\n  dataSize(sub_0)\n  dup1\n  dataOffset(sub_0)\n  0x00\n  codecopy\n  0x00\n  return\nstop\n\nsub_0: assembly {\n        /* \"contracts/SimpleCounter.sol\":62:643  contract SimpleCounter {\r... */\n      mstore(0x40, 0x80)\n      callvalue\n      dup1\n      iszero\n      tag_1\n      jumpi\n      0x00\n      dup1\n      revert\n    tag_1:\n      pop\n      jumpi(tag_2, lt(calldatasize, 0x04))\n      shr(0xe0, calldataload(0x00))\n      dup1\n      0x06661abd\n      eq\n      tag_3\n      jumpi\n      dup1\n      0x6f72704d\n      eq\n      tag_4\n      jumpi\n      dup1\n      0xd826f88f\n      eq\n      tag_5\n      jumpi\n    tag_2:\n      0x00\n      dup1\n      revert\n        /* \"contracts/SimpleCounter.sol\":92:113  uint public count = 0 */\n    tag_3:\n      tag_6\n      tag_7\n      jump\t// in\n    tag_6:\n      mload(0x40)\n      tag_8\n      swap2\n      swap1\n      tag_9\n      jump\t// in\n    tag_8:\n      mload(0x40)\n      dup1\n      swap2\n      sub\n      swap1\n      return\n        /* \"contracts/SimpleCounter.sol\":308:487  function addInteger(uint intToAdd) public returns(uint) {\r... */\n    tag_4:\n      tag_10\n      0x04\n      dup1\n      calldatasize\n      sub\n      dup2\n      add\n      swap1\n      tag_11\n      swap2\n      swap1\n      tag_12\n      jump\t// in\n    tag_11:\n      tag_13\n      jump\t// in\n    tag_10:\n      mload(0x40)\n      tag_14\n      swap2\n      swap1\n      tag_9\n      jump\t// in\n    tag_14:\n      mload(0x40)\n      dup1\n      swap2\n      sub\n      swap1\n      return\n        /* \"contracts/SimpleCounter.sol\":495:640  function reset() public returns(uint) {\r... */\n    tag_5:\n      tag_15\n      tag_16\n      jump\t// in\n    tag_15:\n      mload(0x40)\n      tag_17\n      swap2\n      swap1\n      tag_9\n      jump\t// in\n    tag_17:\n      mload(0x40)\n      dup1\n      swap2\n      sub\n      swap1\n      return\n        /* \"contracts/SimpleCounter.sol\":92:113  uint public count = 0 */\n    tag_7:\n      sload(0x00)\n      dup2\n      jump\t// out\n        /* \"contracts/SimpleCounter.sol\":308:487  function addInteger(uint intToAdd) public returns(uint) {\r... */\n    tag_13:\n        /* \"contracts/SimpleCounter.sol\":358:362  uint */\n      0x00\n        /* \"contracts/SimpleCounter.sol\":384:392  intToAdd */\n      dup2\n        /* \"contracts/SimpleCounter.sol\":375:380  count */\n      0x00\n      dup1\n        /* \"contracts/SimpleCounter.sol\":375:392  count += intToAdd */\n      dup3\n      dup3\n      sload\n      tag_19\n      swap2\n      swap1\n      tag_20\n      jump\t// in\n    tag_19:\n      swap3\n      pop\n      pop\n      dup2\n      swap1\n      sstore\n      pop\n        /* \"contracts/SimpleCounter.sol\":428:436  intToAdd */\n      dup2\n        /* \"contracts/SimpleCounter.sol\":417:427  msg.sender */\n      caller\n        /* \"contracts/SimpleCounter.sol\":408:456  intAdded(msg.sender,intToAdd,count,block.number) */\n      0xffffffffffffffffffffffffffffffffffffffff\n      and\n      0x5af8784c5375a746b2138424a802dfcba19fe90eb87ca3e8dc033207eb91d5ad\n        /* \"contracts/SimpleCounter.sol\":437:442  count */\n      sload(0x00)\n        /* \"contracts/SimpleCounter.sol\":443:455  block.number */\n      number\n        /* \"contracts/SimpleCounter.sol\":408:456  intAdded(msg.sender,intToAdd,count,block.number) */\n      mload(0x40)\n      tag_21\n      swap3\n      swap2\n      swap1\n      tag_22\n      jump\t// in\n    tag_21:\n      mload(0x40)\n      dup1\n      swap2\n      sub\n      swap1\n      log3\n        /* \"contracts/SimpleCounter.sol\":474:479  count */\n      sload(0x00)\n        /* \"contracts/SimpleCounter.sol\":467:479  return count */\n      swap1\n      pop\n        /* \"contracts/SimpleCounter.sol\":308:487  function addInteger(uint intToAdd) public returns(uint) {\r... */\n      swap2\n      swap1\n      pop\n      jump\t// out\n        /* \"contracts/SimpleCounter.sol\":495:640  function reset() public returns(uint) {\r... */\n    tag_16:\n        /* \"contracts/SimpleCounter.sol\":527:531  uint */\n      0x00\n        /* \"contracts/SimpleCounter.sol\":552:553  0 */\n      dup1\n        /* \"contracts/SimpleCounter.sol\":544:549  count */\n      0x00\n        /* \"contracts/SimpleCounter.sol\":544:553  count = 0 */\n      dup2\n      swap1\n      sstore\n      pop\n        /* \"contracts/SimpleCounter.sol\":578:588  msg.sender */\n      caller\n        /* \"contracts/SimpleCounter.sol\":569:609  intReset(msg.sender,block.number, count) */\n      0xffffffffffffffffffffffffffffffffffffffff\n      and\n      0x68c0fc8ae3e1d3c6f6a451f4d5ee5436dd8688a9753328bdbb279c12f2c3e53d\n        /* \"contracts/SimpleCounter.sol\":589:601  block.number */\n      number\n        /* \"contracts/SimpleCounter.sol\":603:608  count */\n      sload(0x00)\n        /* \"contracts/SimpleCounter.sol\":569:609  intReset(msg.sender,block.number, count) */\n      mload(0x40)\n      tag_24\n      swap3\n      swap2\n      swap1\n      tag_22\n      jump\t// in\n    tag_24:\n      mload(0x40)\n      dup1\n      swap2\n      sub\n      swap1\n      log2\n        /* \"contracts/SimpleCounter.sol\":627:632  count */\n      sload(0x00)\n        /* \"contracts/SimpleCounter.sol\":620:632  return count */\n      swap1\n      pop\n        /* \"contracts/SimpleCounter.sol\":495:640  function reset() public returns(uint) {\r... */\n      swap1\n      jump\t// out\n        /* \"#utility.yul\":7:146   */\n    tag_26:\n        /* \"#utility.yul\":53:58   */\n      0x00\n        /* \"#utility.yul\":91:97   */\n      dup2\n        /* \"#utility.yul\":78:98   */\n      calldataload\n        /* \"#utility.yul\":69:98   */\n      swap1\n      pop\n        /* \"#utility.yul\":107:140   */\n      tag_28\n        /* \"#utility.yul\":134:139   */\n      dup2\n        /* \"#utility.yul\":107:140   */\n      tag_29\n      jump\t// in\n    tag_28:\n        /* \"#utility.yul\":59:146   */\n      swap3\n      swap2\n      pop\n      pop\n      jump\t// out\n        /* \"#utility.yul\":152:481   */\n    tag_12:\n        /* \"#utility.yul\":211:217   */\n      0x00\n        /* \"#utility.yul\":260:262   */\n      0x20\n        /* \"#utility.yul\":248:257   */\n      dup3\n        /* \"#utility.yul\":239:246   */\n      dup5\n        /* \"#utility.yul\":235:258   */\n      sub\n        /* \"#utility.yul\":231:263   */\n      slt\n        /* \"#utility.yul\":228:230   */\n      iszero\n      tag_31\n      jumpi\n        /* \"#utility.yul\":266:345   */\n      tag_32\n      tag_33\n      jump\t// in\n    tag_32:\n        /* \"#utility.yul\":228:230   */\n    tag_31:\n        /* \"#utility.yul\":386:387   */\n      0x00\n        /* \"#utility.yul\":411:464   */\n      tag_34\n        /* \"#utility.yul\":456:463   */\n      dup5\n        /* \"#utility.yul\":447:453   */\n      dup3\n        /* \"#utility.yul\":436:445   */\n      dup6\n        /* \"#utility.yul\":432:454   */\n      add\n        /* \"#utility.yul\":411:464   */\n      tag_26\n      jump\t// in\n    tag_34:\n        /* \"#utility.yul\":401:464   */\n      swap2\n      pop\n        /* \"#utility.yul\":357:474   */\n      pop\n        /* \"#utility.yul\":218:481   */\n      swap3\n      swap2\n      pop\n      pop\n      jump\t// out\n        /* \"#utility.yul\":487:605   */\n    tag_35:\n        /* \"#utility.yul\":574:598   */\n      tag_37\n        /* \"#utility.yul\":592:597   */\n      dup2\n        /* \"#utility.yul\":574:598   */\n      tag_38\n      jump\t// in\n    tag_37:\n        /* \"#utility.yul\":569:572   */\n      dup3\n        /* \"#utility.yul\":562:599   */\n      mstore\n        /* \"#utility.yul\":552:605   */\n      pop\n      pop\n      jump\t// out\n        /* \"#utility.yul\":611:833   */\n    tag_9:\n        /* \"#utility.yul\":704:708   */\n      0x00\n        /* \"#utility.yul\":742:744   */\n      0x20\n        /* \"#utility.yul\":731:740   */\n      dup3\n        /* \"#utility.yul\":727:745   */\n      add\n        /* \"#utility.yul\":719:745   */\n      swap1\n      pop\n        /* \"#utility.yul\":755:826   */\n      tag_40\n        /* \"#utility.yul\":823:824   */\n      0x00\n        /* \"#utility.yul\":812:821   */\n      dup4\n        /* \"#utility.yul\":808:825   */\n      add\n        /* \"#utility.yul\":799:805   */\n      dup5\n        /* \"#utility.yul\":755:826   */\n      tag_35\n      jump\t// in\n    tag_40:\n        /* \"#utility.yul\":709:833   */\n      swap3\n      swap2\n      pop\n      pop\n      jump\t// out\n        /* \"#utility.yul\":839:1171   */\n    tag_22:\n        /* \"#utility.yul\":960:964   */\n      0x00\n        /* \"#utility.yul\":998:1000   */\n      0x40\n        /* \"#utility.yul\":987:996   */\n      dup3\n        /* \"#utility.yul\":983:1001   */\n      add\n        /* \"#utility.yul\":975:1001   */\n      swap1\n      pop\n        /* \"#utility.yul\":1011:1082   */\n      tag_42\n        /* \"#utility.yul\":1079:1080   */\n      0x00\n        /* \"#utility.yul\":1068:1077   */\n      dup4\n        /* \"#utility.yul\":1064:1081   */\n      add\n        /* \"#utility.yul\":1055:1061   */\n      dup6\n        /* \"#utility.yul\":1011:1082   */\n      tag_35\n      jump\t// in\n    tag_42:\n        /* \"#utility.yul\":1092:1164   */\n      tag_43\n        /* \"#utility.yul\":1160:1162   */\n      0x20\n        /* \"#utility.yul\":1149:1158   */\n      dup4\n        /* \"#utility.yul\":1145:1163   */\n      add\n        /* \"#utility.yul\":1136:1142   */\n      dup5\n        /* \"#utility.yul\":1092:1164   */\n      tag_35\n      jump\t// in\n    tag_43:\n        /* \"#utility.yul\":965:1171   */\n      swap4\n      swap3\n      pop\n      pop\n      pop\n      jump\t// out\n        /* \"#utility.yul\":1258:1563   */\n    tag_20:\n        /* \"#utility.yul\":1298:1301   */\n      0x00\n        /* \"#utility.yul\":1317:1337   */\n      tag_47\n        /* \"#utility.yul\":1335:1336   */\n      dup3\n        /* \"#utility.yul\":1317:1337   */\n      tag_38\n      jump\t// in\n    tag_47:\n        /* \"#utility.yul\":1312:1337   */\n      swap2\n      pop\n        /* \"#utility.yul\":1351:1371   */\n      tag_48\n        /* \"#utility.yul\":1369:1370   */\n      dup4\n        /* \"#utility.yul\":1351:1371   */\n      tag_38\n      jump\t// in\n    tag_48:\n        /* \"#utility.yul\":1346:1371   */\n      swap3\n      pop\n        /* \"#utility.yul\":1505:1506   */\n      dup3\n        /* \"#utility.yul\":1437:1503   */\n      0xffffffffffffffffffffffffffffffffffffffffffffffffffffffffffffffff\n        /* \"#utility.yul\":1433:1507   */\n      sub\n        /* \"#utility.yul\":1430:1431   */\n      dup3\n        /* \"#utility.yul\":1427:1508   */\n      gt\n        /* \"#utility.yul\":1424:1426   */\n      iszero\n      tag_49\n      jumpi\n        /* \"#utility.yul\":1511:1529   */\n      tag_50\n      tag_51\n      jump\t// in\n    tag_50:\n        /* \"#utility.yul\":1424:1426   */\n    tag_49:\n        /* \"#utility.yul\":1555:1556   */\n      dup3\n        /* \"#utility.yul\":1552:1553   */\n      dup3\n        /* \"#utility.yul\":1548:1557   */\n      add\n        /* \"#utility.yul\":1541:1557   */\n      swap1\n      pop\n        /* \"#utility.yul\":1302:1563   */\n      swap3\n      swap2\n      pop\n      pop\n      jump\t// out\n        /* \"#utility.yul\":1569:1646   */\n    tag_38:\n        /* \"#utility.yul\":1606:1613   */\n      0x00\n        /* \"#utility.yul\":1635:1640   */\n      dup2\n        /* \"#utility.yul\":1624:1640   */\n      swap1\n      pop\n        /* \"#utility.yul\":1614:1646   */\n      swap2\n      swap1\n      pop\n      jump\t// out\n        /* \"#utility.yul\":1652:1832   */\n    tag_51:\n        /* \"#utility.yul\":1700:1777   */\n      0x4e487b7100000000000000000000000000000000000000000000000000000000\n        /* \"#utility.yul\":1697:1698   */\n      0x00\n        /* \"#utility.yul\":1690:1778   */\n      mstore\n        /* \"#utility.yul\":1797:1801   */\n      0x11\n        /* \"#utility.yul\":1794:1795   */\n      0x04\n        /* \"#utility.yul\":1787:1802   */\n      mstore\n        /* \"#utility.yul\":1821:1825   */\n      0x24\n        /* \"#utility.yul\":1818:1819   */\n      0x00\n        /* \"#utility.yul\":1811:1826   */\n      revert\n        /* \"#utility.yul\":1961:2078   */\n    tag_33:\n        /* \"#utility.yul\":2070:2071   */\n      0x00\n        /* \"#utility.yul\":2067:2068   */\n      dup1\n        /* \"#utility.yul\":2060:2072   */\n      revert\n        /* \"#utility.yul\":2084:2206   */\n    tag_29:\n        /* \"#utility.yul\":2157:2181   */\n      tag_58\n        /* \"#utility.yul\":2175:2180   */\n      dup2\n        /* \"#utility.yul\":2157:2181   */\n      tag_38\n      jump\t// in\n    tag_58:\n        /* \"#utility.yul\":2150:2155   */\n      dup2\n        /* \"#utility.yul\":2147:2182   */\n      eq\n        /* \"#utility.yul\":2137:2139   */\n      tag_59\n      jumpi\n        /* \"#utility.yul\":2196:2197   */\n      0x00\n        /* \"#utility.yul\":2193:2194   */\n      dup1\n        /* \"#utility.yul\":2186:2198   */\n      revert\n        /* \"#utility.yul\":2137:2139   */\n    tag_59:\n        /* \"#utility.yul\":2127:2206   */\n      pop\n      jump\t// out\n\n    auxdata: 0xa2646970667358221220e6035fe4cc9d179369b20be3760acd0fa1bed8fff6532268e40e67d9f934c31c64736f6c63430008060033\n}\n",
				"bytecode": {
					"linkReferences": {},
					"object": "60806040526000805534801561001457600080fd5b50610308806100246000396000f3fe608060405234801561001057600080fd5b50600436106100415760003560e01c806306661abd146100465780636f72704d14610064578063d826f88f14610094575b600080fd5b61004e6100b2565b60405161005b91906101e3565b60405180910390f35b61007e600480360381019061007991906101a7565b6100b8565b60405161008b91906101e3565b60405180910390f35b61009c61012f565b6040516100a991906101e3565b60405180910390f35b60005481565b6000816000808282546100cb9190610227565b92505081905550813373ffffffffffffffffffffffffffffffffffffffff167f5af8784c5375a746b2138424a802dfcba19fe90eb87ca3e8dc033207eb91d5ad6000544360405161011d9291906101fe565b60405180910390a36000549050919050565b6000806000819055503373ffffffffffffffffffffffffffffffffffffffff167f68c0fc8ae3e1d3c6f6a451f4d5ee5436dd8688a9753328bdbb279c12f2c3e53d436000546040516101829291906101fe565b60405180910390a2600054905090565b6000813590506101a1816102bb565b92915050565b6000602082840312156101bd576101bc6102b6565b5b60006101cb84828501610192565b91505092915050565b6101dd8161027d565b82525050565b60006020820190506101f860008301846101d4565b92915050565b600060408201905061021360008301856101d4565b61022060208301846101d4565b9392505050565b60006102328261027d565b915061023d8361027d565b9250827fffffffffffffffffffffffffffffffffffffffffffffffffffffffffffffffff0382111561027257610271610287565b5b828201905092915050565b6000819050919050565b7f4e487b7100000000000000000000000000000000000000000000000000000000600052601160045260246000fd5b600080fd5b6102c48161027d565b81146102cf57600080fd5b5056fea2646970667358221220e6035fe4cc9d179369b20be3760acd0fa1bed8fff6532268e40e67d9f934c31c64736f6c63430008060033",
					"opcodes": "PUSH1 0x80 PUSH1 0x40 MSTORE PUSH1 0x0 DUP1 SSTORE CALLVALUE DUP1 ISZERO PUSH2 0x14 JUMPI PUSH1 0x0 DUP1 REVERT JUMPDEST POP PUSH2 0x308 DUP1 PUSH2 0x24 PUSH1 0x0 CODECOPY PUSH1 0x0 RETURN INVALID PUSH1 0x80 PUSH1 0x40 MSTORE CALLVALUE DUP1 ISZERO PUSH2 0x10 JUMPI PUSH1 0x0 DUP1 REVERT JUMPDEST POP PUSH1 0x4 CALLDATASIZE LT PUSH2 0x41 JUMPI PUSH1 0x0 CALLDATALOAD PUSH1 0xE0 SHR DUP1 PUSH4 0x6661ABD EQ PUSH2 0x46 JUMPI DUP1 PUSH4 0x6F72704D EQ PUSH2 0x64 JUMPI DUP1 PUSH4 0xD826F88F EQ PUSH2 0x94 JUMPI JUMPDEST PUSH1 0x0 DUP1 REVERT JUMPDEST PUSH2 0x4E PUSH2 0xB2 JUMP JUMPDEST PUSH1 0x40 MLOAD PUSH2 0x5B SWAP2 SWAP1 PUSH2 0x1E3 JUMP JUMPDEST PUSH1 0x40 MLOAD DUP1 SWAP2 SUB SWAP1 RETURN JUMPDEST PUSH2 0x7E PUSH1 0x4 DUP1 CALLDATASIZE SUB DUP2 ADD SWAP1 PUSH2 0x79 SWAP2 SWAP1 PUSH2 0x1A7 JUMP JUMPDEST PUSH2 0xB8 JUMP JUMPDEST PUSH1 0x40 MLOAD PUSH2 0x8B SWAP2 SWAP1 PUSH2 0x1E3 JUMP JUMPDEST PUSH1 0x40 MLOAD DUP1 SWAP2 SUB SWAP1 RETURN JUMPDEST PUSH2 0x9C PUSH2 0x12F JUMP JUMPDEST PUSH1 0x40 MLOAD PUSH2 0xA9 SWAP2 SWAP1 PUSH2 0x1E3 JUMP JUMPDEST PUSH1 0x40 MLOAD DUP1 SWAP2 SUB SWAP1 RETURN JUMPDEST PUSH1 0x0 SLOAD DUP2 JUMP JUMPDEST PUSH1 0x0 DUP2 PUSH1 0x0 DUP1 DUP3 DUP3 SLOAD PUSH2 0xCB SWAP2 SWAP1 PUSH2 0x227 JUMP JUMPDEST SWAP3 POP POP DUP2 SWAP1 SSTORE POP DUP2 CALLER PUSH20 0xFFFFFFFFFFFFFFFFFFFFFFFFFFFFFFFFFFFFFFFF AND PUSH32 0x5AF8784C5375A746B2138424A802DFCBA19FE90EB87CA3E8DC033207EB91D5AD PUSH1 0x0 SLOAD NUMBER PUSH1 0x40 MLOAD PUSH2 0x11D SWAP3 SWAP2 SWAP1 PUSH2 0x1FE JUMP JUMPDEST PUSH1 0x40 MLOAD DUP1 SWAP2 SUB SWAP1 LOG3 PUSH1 0x0 SLOAD SWAP1 POP SWAP2 SWAP1 POP JUMP JUMPDEST PUSH1 0x0 DUP1 PUSH1 0x0 DUP2 SWAP1 SSTORE POP CALLER PUSH20 0xFFFFFFFFFFFFFFFFFFFFFFFFFFFFFFFFFFFFFFFF AND PUSH32 0x68C0FC8AE3E1D3C6F6A451F4D5EE5436DD8688A9753328BDBB279C12F2C3E53D NUMBER PUSH1 0x0 SLOAD PUSH1 0x40 MLOAD PUSH2 0x182 SWAP3 SWAP2 SWAP1 PUSH2 0x1FE JUMP JUMPDEST PUSH1 0x40 MLOAD DUP1 SWAP2 SUB SWAP1 LOG2 PUSH1 0x0 SLOAD SWAP1 POP SWAP1 JUMP JUMPDEST PUSH1 0x0 DUP2 CALLDATALOAD SWAP1 POP PUSH2 0x1A1 DUP2 PUSH2 0x2BB JUMP JUMPDEST SWAP3 SWAP2 POP POP JUMP JUMPDEST PUSH1 0x0 PUSH1 0x20 DUP3 DUP5 SUB SLT ISZERO PUSH2 0x1BD JUMPI PUSH2 0x1BC PUSH2 0x2B6 JUMP JUMPDEST JUMPDEST PUSH1 0x0 PUSH2 0x1CB DUP5 DUP3 DUP6 ADD PUSH2 0x192 JUMP JUMPDEST SWAP2 POP POP SWAP3 SWAP2 POP POP JUMP JUMPDEST PUSH2 0x1DD DUP2 PUSH2 0x27D JUMP JUMPDEST DUP3 MSTORE POP POP JUMP JUMPDEST PUSH1 0x0 PUSH1 0x20 DUP3 ADD SWAP1 POP PUSH2 0x1F8 PUSH1 0x0 DUP4 ADD DUP5 PUSH2 0x1D4 JUMP JUMPDEST SWAP3 SWAP2 POP POP JUMP JUMPDEST PUSH1 0x0 PUSH1 0x40 DUP3 ADD SWAP1 POP PUSH2 0x213 PUSH1 0x0 DUP4 ADD DUP6 PUSH2 0x1D4 JUMP JUMPDEST PUSH2 0x220 PUSH1 0x20 DUP4 ADD DUP5 PUSH2 0x1D4 JUMP JUMPDEST SWAP4 SWAP3 POP POP POP JUMP JUMPDEST PUSH1 0x0 PUSH2 0x232 DUP3 PUSH2 0x27D JUMP JUMPDEST SWAP2 POP PUSH2 0x23D DUP4 PUSH2 0x27D JUMP JUMPDEST SWAP3 POP DUP3 PUSH32 0xFFFFFFFFFFFFFFFFFFFFFFFFFFFFFFFFFFFFFFFFFFFFFFFFFFFFFFFFFFFFFFFF SUB DUP3 GT ISZERO PUSH2 0x272 JUMPI PUSH2 0x271 PUSH2 0x287 JUMP JUMPDEST JUMPDEST DUP3 DUP3 ADD SWAP1 POP SWAP3 SWAP2 POP POP JUMP JUMPDEST PUSH1 0x0 DUP2 SWAP1 POP SWAP2 SWAP1 POP JUMP JUMPDEST PUSH32 0x4E487B7100000000000000000000000000000000000000000000000000000000 PUSH1 0x0 MSTORE PUSH1 0x11 PUSH1 0x4 MSTORE PUSH1 0x24 PUSH1 0x0 REVERT JUMPDEST PUSH1 0x0 DUP1 REVERT JUMPDEST PUSH2 0x2C4 DUP2 PUSH2 0x27D JUMP JUMPDEST DUP2 EQ PUSH2 0x2CF JUMPI PUSH1 0x0 DUP1 REVERT JUMPDEST POP JUMP INVALID LOG2 PUSH5 0x6970667358 0x22 SLT KECCAK256 0xE6 SUB 0x5F 0xE4 0xCC SWAP14 OR SWAP4 PUSH10 0xB20BE3760ACD0FA1BED8 SELFDESTRUCT 0xF6 MSTORE8 0x22 PUSH9 0xE40E67D9F934C31C64 PUSH20 0x6F6C634300080600330000000000000000000000 "
				},
				"gasEstimates": {
					"creation": {
						"codeDepositCost": "155200",
						"executionCost": "5208",
						"totalCost": "160408"
					},
					"external": {
						"addInteger(uint256)": "infinite",
						"count()": "2407",
						"reset()": "infinite"
					}
				},
				"methodIdentifiers": {
					"addInteger(uint256)": "6f72704d",
					"count()": "06661abd",
					"reset()": "d826f88f"
				}
			},
			"storageLayout": {
				"storage": [
					{
						"astId": 4,
						"contract": "contracts/SimpleCounter.sol:SimpleCounter",
						"label": "count",
						"offset": 0,
						"slot": "0",
						"type": "t_uint256"
					}
				],
				"types": {
					"t_uint256": {
						"encoding": "inplace",
						"label": "uint256",
						"numberOfBytes": "32"
					}
				}
			},
			"userdoc": {
				"kind": "user",
				"methods": {},
				"version": 1
			}
		}
	}
}